{
  "contractName": "Land",
  "abi": [
    {
      "constant": true,
      "inputs": [],
      "name": "usercount",
      "outputs": [
        {
          "name": "",
          "type": "uint256"
        }
      ],
      "payable": false,
      "stateMutability": "view",
      "type": "function",
      "signature": "0x0f322c1e"
    },
    {
      "constant": true,
      "inputs": [
        {
          "name": "",
          "type": "uint256"
        }
      ],
      "name": "Lands",
      "outputs": [
        {
          "name": "landId",
          "type": "uint256"
        },
        {
          "name": "landTag",
          "type": "uint256"
        },
        {
          "name": "landOwnerName",
          "type": "string"
        },
        {
          "name": "landOwnerAddress",
          "type": "address"
        },
        {
          "name": "landOwnerValidator",
          "type": "address"
        },
        {
          "name": "landStatus",
          "type": "uint8"
        },
        {
          "name": "specifyLandTo",
          "type": "address"
        },
        {
          "name": "payableAmount",
          "type": "uint256"
        }
      ],
      "payable": false,
      "stateMutability": "view",
      "type": "function",
      "signature": "0x226897b5"
    },
    {
      "constant": true,
      "inputs": [],
      "name": "landcount",
      "outputs": [
        {
          "name": "",
          "type": "uint256"
        }
      ],
      "payable": false,
      "stateMutability": "view",
      "type": "function",
      "signature": "0x23e6267a"
    },
    {
      "constant": true,
      "inputs": [
        {
          "name": "",
          "type": "address"
        }
      ],
      "name": "Users",
      "outputs": [
        {
          "name": "userId",
          "type": "uint256"
        },
        {
          "name": "userName",
          "type": "string"
        },
        {
          "name": "userAddress",
          "type": "address"
        },
        {
          "name": "userBalance",
          "type": "uint256"
        },
        {
          "name": "userPrivilege",
          "type": "uint8"
        }
      ],
      "payable": false,
      "stateMutability": "view",
      "type": "function",
      "signature": "0x99b956a0"
    },
    {
      "inputs": [],
      "payable": false,
      "stateMutability": "nonpayable",
      "type": "constructor",
      "signature": "constructor"
    },
    {
      "anonymous": false,
      "inputs": [
        {
          "indexed": false,
          "name": "ownerAddress",
          "type": "address"
        },
        {
          "indexed": false,
          "name": "amount",
          "type": "uint256"
        }
      ],
      "name": "transferMoney",
      "type": "event",
      "signature": "0xfee666ad640937a68e2440efc0f6dc36f30906a9c11f5ff32d92d33d56520a50"
    },
    {
      "constant": false,
      "inputs": [
        {
          "name": "_landTag",
          "type": "uint256"
        },
        {
          "name": "_landOwnerAddress",
          "type": "address"
        }
      ],
      "name": "registerLand",
      "outputs": [
        {
          "name": "",
          "type": "bool"
        }
      ],
      "payable": false,
      "stateMutability": "nonpayable",
      "type": "function",
      "signature": "0x27e3e83a"
    },
    {
      "constant": false,
      "inputs": [
        {
          "name": "_userAddress",
          "type": "address"
        },
        {
          "name": "_Privilege",
          "type": "uint8"
        }
      ],
      "name": "chUserPrivilege",
      "outputs": [
        {
          "name": "",
          "type": "bool"
        }
      ],
      "payable": false,
      "stateMutability": "nonpayable",
      "type": "function",
      "signature": "0xda5755e8"
    },
    {
      "constant": false,
      "inputs": [
        {
          "name": "_landTag",
          "type": "uint256"
        },
        {
          "name": "_landState",
          "type": "uint8"
        }
      ],
      "name": "chLandStatus",
      "outputs": [
        {
          "name": "",
          "type": "bool"
        }
      ],
      "payable": false,
      "stateMutability": "nonpayable",
      "type": "function",
      "signature": "0x2b1f9171"
    },
    {
      "constant": false,
      "inputs": [
        {
          "name": "_landTag",
          "type": "uint256"
        },
        {
          "name": "_payableAmount",
          "type": "uint256"
        }
      ],
      "name": "chLandPayableAmount",
      "outputs": [
        {
          "name": "",
          "type": "bool"
        }
      ],
      "payable": false,
      "stateMutability": "nonpayable",
      "type": "function",
      "signature": "0x425a0eba"
    },
    {
      "constant": false,
      "inputs": [
        {
          "name": "_userName",
          "type": "string"
        },
        {
          "name": "_userAddress",
          "type": "address"
        }
      ],
      "name": "registerUser",
      "outputs": [
        {
          "name": "",
          "type": "bool"
        }
      ],
      "payable": false,
      "stateMutability": "nonpayable",
      "type": "function",
      "signature": "0x0e54b872"
    },
    {
      "constant": false,
      "inputs": [
        {
          "name": "_userName",
          "type": "string"
        }
      ],
      "name": "registerCustomer",
      "outputs": [
        {
          "name": "",
          "type": "bool"
        }
      ],
      "payable": false,
      "stateMutability": "nonpayable",
      "type": "function",
      "signature": "0x1378d806"
    },
    {
      "constant": false,
      "inputs": [
        {
          "name": "_landTag",
          "type": "uint256"
        }
      ],
      "name": "transactLand",
      "outputs": [
        {
          "name": "",
          "type": "bool"
        }
      ],
      "payable": true,
      "stateMutability": "payable",
      "type": "function",
      "signature": "0x1d84cc83"
    }
  ],
  "bytecode": "0x60806040523480156200001157600080fd5b50336000806101000a81548173ffffffffffffffffffffffffffffffffffffffff021916908373ffffffffffffffffffffffffffffffffffffffff1602179055506200005c620001cf565b60a06040519081016040528060045481526020016040805190810160405280600581526020017f61646d696e00000000000000000000000000000000000000000000000000000081525081526020013373ffffffffffffffffffffffffffffffffffffffff1681526020016064815260200160006002811115620000dc57fe5b815250905080600360003373ffffffffffffffffffffffffffffffffffffffff1673ffffffffffffffffffffffffffffffffffffffff1681526020019081526020016000206000820151816000015560208201518160010190805190602001906200014992919062000221565b5060408201518160020160006101000a81548173ffffffffffffffffffffffffffffffffffffffff021916908373ffffffffffffffffffffffffffffffffffffffff1602179055506060820151816003015560808201518160040160006101000a81548160ff02191690836002811115620001c057fe5b021790555090505050620002d0565b60a0604051908101604052806000815260200160608152602001600073ffffffffffffffffffffffffffffffffffffffff16815260200160008152602001600060028111156200021b57fe5b81525090565b828054600181600116156101000203166002900490600052602060002090601f016020900481019282601f106200026457805160ff191683800117855562000295565b8280016001018555821562000295579182015b828111156200029457825182559160200191906001019062000277565b5b509050620002a49190620002a8565b5090565b620002cd91905b80821115620002c9576000816000905550600101620002af565b5090565b90565b61214880620002e06000396000f3fe6080604052600436106100af576000357c0100000000000000000000000000000000000000000000000000000000900463ffffffff1680630e54b872146100b45780630f322c1e146101b45780631378d806146101df5780631d84cc83146102bf578063226897b51461030557806323e6267a1461047c57806327e3e83a146104a75780632b1f91711461051a578063425a0eba1461057a57806399b956a0146105d7578063da5755e8146106f7575b600080fd5b3480156100c057600080fd5b5061019a600480360360408110156100d757600080fd5b81019080803590602001906401000000008111156100f457600080fd5b82018360208201111561010657600080fd5b8035906020019184600183028401116401000000008311171561012857600080fd5b91908080601f016020809104026020016040519081016040528093929190818152602001838380828437600081840152601f19601f820116905080830192505050505050509192919290803573ffffffffffffffffffffffffffffffffffffffff16906020019092919050505061076d565b604051808215151515815260200191505060405180910390f35b3480156101c057600080fd5b506101c9610a59565b6040518082815260200191505060405180910390f35b3480156101eb57600080fd5b506102a56004803603602081101561020257600080fd5b810190808035906020019064010000000081111561021f57600080fd5b82018360208201111561023157600080fd5b8035906020019184600183028401116401000000008311171561025357600080fd5b91908080601f016020809104026020016040519081016040528093929190818152602001838380828437600081840152601f19601f820116905080830192505050505050509192919290505050610a5f565b604051808215151515815260200191505060405180910390f35b6102eb600480360360208110156102d557600080fd5b8101908080359060200190929190505050610c6d565b604051808215151515815260200191505060405180910390f35b34801561031157600080fd5b5061033e6004803603602081101561032857600080fd5b810190808035906020019092919050505061133d565b60405180898152602001888152602001806020018773ffffffffffffffffffffffffffffffffffffffff1673ffffffffffffffffffffffffffffffffffffffff1681526020018673ffffffffffffffffffffffffffffffffffffffff1673ffffffffffffffffffffffffffffffffffffffff1681526020018560018111156103c257fe5b60ff1681526020018473ffffffffffffffffffffffffffffffffffffffff1673ffffffffffffffffffffffffffffffffffffffff168152602001838152602001828103825288818151815260200191508051906020019080838360005b8381101561043a57808201518184015260208101905061041f565b50505050905090810190601f1680156104675780820380516001836020036101000a031916815260200191505b50995050505050505050505060405180910390f35b34801561048857600080fd5b5061049161148a565b6040518082815260200191505060405180910390f35b3480156104b357600080fd5b50610500600480360360408110156104ca57600080fd5b8101908080359060200190929190803573ffffffffffffffffffffffffffffffffffffffff169060200190929190505050611490565b604051808215151515815260200191505060405180910390f35b34801561052657600080fd5b506105606004803603604081101561053d57600080fd5b8101908080359060200190929190803560ff169060200190929190505050611a30565b604051808215151515815260200191505060405180910390f35b34801561058657600080fd5b506105bd6004803603604081101561059d57600080fd5b810190808035906020019092919080359060200190929190505050611ae7565b604051808215151515815260200191505060405180910390f35b3480156105e357600080fd5b50610626600480360360208110156105fa57600080fd5b81019080803573ffffffffffffffffffffffffffffffffffffffff169060200190929190505050611b82565b60405180868152602001806020018573ffffffffffffffffffffffffffffffffffffffff1673ffffffffffffffffffffffffffffffffffffffff16815260200184815260200183600281111561067857fe5b60ff168152602001828103825286818151815260200191508051906020019080838360005b838110156106b857808201518184015260208101905061069d565b50505050905090810190601f1680156106e55780820380516001836020036101000a031916815260200191505b50965050505050505060405180910390f35b34801561070357600080fd5b506107536004803603604081101561071a57600080fd5b81019080803573ffffffffffffffffffffffffffffffffffffffff169060200190929190803560ff169060200190929190505050611c7d565b604051808215151515815260200191505060405180910390f35b600080600281111561077b57fe5b600360003373ffffffffffffffffffffffffffffffffffffffff1673ffffffffffffffffffffffffffffffffffffffff16815260200190815260200160002060040160009054906101000a900460ff1660028111156107d657fe5b14151561084b576040517f08c379a00000000000000000000000000000000000000000000000000000000081526004018080602001828103825260118152602001807f55736572206973206e6f742061646d696e00000000000000000000000000000081525060200191505060405180910390fd5b600073ffffffffffffffffffffffffffffffffffffffff16600360008473ffffffffffffffffffffffffffffffffffffffff1673ffffffffffffffffffffffffffffffffffffffff16815260200190815260200160002060020160009054906101000a900473ffffffffffffffffffffffffffffffffffffffff1673ffffffffffffffffffffffffffffffffffffffff161415610a4e576004600081548092919060010191905055506108fc611e38565b60a06040519081016040528060045481526020018581526020018473ffffffffffffffffffffffffffffffffffffffff1681526020018473ffffffffffffffffffffffffffffffffffffffff1631815260200160028081111561095b57fe5b815250905080600360008573ffffffffffffffffffffffffffffffffffffffff1673ffffffffffffffffffffffffffffffffffffffff1681526020019081526020016000206000820151816000015560208201518160010190805190602001906109c6929190611e89565b5060408201518160020160006101000a81548173ffffffffffffffffffffffffffffffffffffffff021916908373ffffffffffffffffffffffffffffffffffffffff1602179055506060820151816003015560808201518160040160006101000a81548160ff02191690836002811115610a3c57fe5b02179055509050506001915050610a53565b600090505b92915050565b60045481565b60008073ffffffffffffffffffffffffffffffffffffffff16600360003373ffffffffffffffffffffffffffffffffffffffff1673ffffffffffffffffffffffffffffffffffffffff16815260200190815260200160002060020160009054906101000a900473ffffffffffffffffffffffffffffffffffffffff1673ffffffffffffffffffffffffffffffffffffffff161415610c6357600460008154809291906001019190505550610b11611e38565b60a06040519081016040528060045481526020018481526020013373ffffffffffffffffffffffffffffffffffffffff1681526020013373ffffffffffffffffffffffffffffffffffffffff16318152602001600280811115610b7057fe5b815250905080600360003373ffffffffffffffffffffffffffffffffffffffff1673ffffffffffffffffffffffffffffffffffffffff168152602001908152602001600020600082015181600001556020820151816001019080519060200190610bdb929190611e89565b5060408201518160020160006101000a81548173ffffffffffffffffffffffffffffffffffffffff021916908373ffffffffffffffffffffffffffffffffffffffff1602179055506060820151816003015560808201518160040160006101000a81548160ff02191690836002811115610c5157fe5b02179055509050506001915050610c68565b600090505b919050565b600080600360003373ffffffffffffffffffffffffffffffffffffffff1673ffffffffffffffffffffffffffffffffffffffff16815260200190815260200160002090506000600160008581526020019081526020016000209050600180811115610cd457fe5b8160050160149054906101000a900460ff166001811115610cf157fe5b1415611331576000600360008360030160009054906101000a900473ffffffffffffffffffffffffffffffffffffffff1673ffffffffffffffffffffffffffffffffffffffff1673ffffffffffffffffffffffffffffffffffffffff16815260200190815260200160002090508160030160009054906101000a900473ffffffffffffffffffffffffffffffffffffffff1673ffffffffffffffffffffffffffffffffffffffff166108fc670de0b6b3a76400008460070154029081150290604051600060405180830381858888f1935050505050816004018260030160009054906101000a900473ffffffffffffffffffffffffffffffffffffffff1690806001815401808255809150509060018203906000526020600020016000909192909190916101000a81548173ffffffffffffffffffffffffffffffffffffffff021916908373ffffffffffffffffffffffffffffffffffffffff16021790555050338260030160006101000a81548173ffffffffffffffffffffffffffffffffffffffff021916908373ffffffffffffffffffffffffffffffffffffffff160217905550600360003373ffffffffffffffffffffffffffffffffffffffff1673ffffffffffffffffffffffffffffffffffffffff168152602001908152602001600020600101826002019080546001816001161561010002031660029004610efa929190611f09565b5060008260050160146101000a81548160ff02191690836001811115610f1c57fe5b0217905550610f29611f90565b8261012060405190810160405290816000820154815260200160018201548152602001600282018054600181600116156101000203166002900480601f016020809104026020016040519081016040528092919081815260200182805460018160011615610100020316600290048015610fe45780601f10610fb957610100808354040283529160200191610fe4565b820191906000526020600020905b815481529060010190602001808311610fc757829003601f168201915b505050505081526020016003820160009054906101000a900473ffffffffffffffffffffffffffffffffffffffff1673ffffffffffffffffffffffffffffffffffffffff1673ffffffffffffffffffffffffffffffffffffffff168152602001600482018054806020026020016040519081016040528092919081815260200182805480156110c857602002820191906000526020600020905b8160009054906101000a900473ffffffffffffffffffffffffffffffffffffffff1673ffffffffffffffffffffffffffffffffffffffff168152602001906001019080831161107e575b505050505081526020016005820160009054906101000a900473ffffffffffffffffffffffffffffffffffffffff1673ffffffffffffffffffffffffffffffffffffffff1673ffffffffffffffffffffffffffffffffffffffff1681526020016005820160149054906101000a900460ff16600181111561114557fe5b600181111561115057fe5b81526020016006820160009054906101000a900473ffffffffffffffffffffffffffffffffffffffff1673ffffffffffffffffffffffffffffffffffffffff1673ffffffffffffffffffffffffffffffffffffffff16815260200160078201548152505090508060016000888152602001908152602001600020600082015181600001556020820151816001015560408201518160020190805190602001906111fa929190611e89565b5060608201518160030160006101000a81548173ffffffffffffffffffffffffffffffffffffffff021916908373ffffffffffffffffffffffffffffffffffffffff160217905550608082015181600401908051906020019061125e92919061202a565b5060a08201518160050160006101000a81548173ffffffffffffffffffffffffffffffffffffffff021916908373ffffffffffffffffffffffffffffffffffffffff16021790555060c08201518160050160146101000a81548160ff021916908360018111156112ca57fe5b021790555060e08201518160060160006101000a81548173ffffffffffffffffffffffffffffffffffffffff021916908373ffffffffffffffffffffffffffffffffffffffff16021790555061010082015181600701559050506001945050505050611338565b6000925050505b919050565b6001602052806000526040600020600091509050806000015490806001015490806002018054600181600116156101000203166002900480601f0160208091040260200160405190810160405280929190818152602001828054600181600116156101000203166002900480156113f55780601f106113ca576101008083540402835291602001916113f5565b820191906000526020600020905b8154815290600101906020018083116113d857829003601f168201915b5050505050908060030160009054906101000a900473ffffffffffffffffffffffffffffffffffffffff16908060050160009054906101000a900473ffffffffffffffffffffffffffffffffffffffff16908060050160149054906101000a900460ff16908060060160009054906101000a900473ffffffffffffffffffffffffffffffffffffffff16908060070154905088565b60025481565b600080600281111561149e57fe5b600360003373ffffffffffffffffffffffffffffffffffffffff1673ffffffffffffffffffffffffffffffffffffffff16815260200190815260200160002060040160009054906101000a900460ff1660028111156114f957fe5b148061156a57506001600281111561150d57fe5b600360003373ffffffffffffffffffffffffffffffffffffffff1673ffffffffffffffffffffffffffffffffffffffff16815260200190815260200160002060040160009054906101000a900460ff16600281111561156857fe5b145b15156115de576040517f08c379a00000000000000000000000000000000000000000000000000000000081526004018080602001828103825260198152602001807f557365722063616e6e6f74207265676973746572204c616e640000000000000081525060200191505060405180910390fd5b6115e6611e38565b600360008473ffffffffffffffffffffffffffffffffffffffff1673ffffffffffffffffffffffffffffffffffffffff16815260200190815260200160002060a0604051908101604052908160008201548152602001600182018054600181600116156101000203166002900480601f0160208091040260200160405190810160405280929190818152602001828054600181600116156101000203166002900480156116d45780601f106116a9576101008083540402835291602001916116d4565b820191906000526020600020905b8154815290600101906020018083116116b757829003601f168201915b505050505081526020016002820160009054906101000a900473ffffffffffffffffffffffffffffffffffffffff1673ffffffffffffffffffffffffffffffffffffffff1673ffffffffffffffffffffffffffffffffffffffff168152602001600382015481526020016004820160009054906101000a900460ff16600281111561175b57fe5b600281111561176657fe5b815250509050600073ffffffffffffffffffffffffffffffffffffffff16816040015173ffffffffffffffffffffffffffffffffffffffff16141580156117c3575060006001600086815260200190815260200160002060010154145b15611a24576002600081548092919060010191905055506117e2611f90565b610120604051908101604052806002548152602001868152602001836020015181526020018573ffffffffffffffffffffffffffffffffffffffff16815260200160006040519080825280602002602001820160405280156118535781602001602082028038833980820191505090505b5081526020013373ffffffffffffffffffffffffffffffffffffffff1681526020016000600181111561188257fe5b8152602001600073ffffffffffffffffffffffffffffffffffffffff168152602001600081525090508060016000878152602001908152602001600020600082015181600001556020820151816001015560408201518160020190805190602001906118ef929190611e89565b5060608201518160030160006101000a81548173ffffffffffffffffffffffffffffffffffffffff021916908373ffffffffffffffffffffffffffffffffffffffff160217905550608082015181600401908051906020019061195392919061202a565b5060a08201518160050160006101000a81548173ffffffffffffffffffffffffffffffffffffffff021916908373ffffffffffffffffffffffffffffffffffffffff16021790555060c08201518160050160146101000a81548160ff021916908360018111156119bf57fe5b021790555060e08201518160060160006101000a81548173ffffffffffffffffffffffffffffffffffffffff021916908373ffffffffffffffffffffffffffffffffffffffff1602179055506101008201518160070155905050600192505050611a2a565b60009150505b92915050565b60003373ffffffffffffffffffffffffffffffffffffffff166001600085815260200190815260200160002060030160009054906101000a900473ffffffffffffffffffffffffffffffffffffffff1673ffffffffffffffffffffffffffffffffffffffff161415611adc57816001600085815260200190815260200160002060050160146101000a81548160ff02191690836001811115611ace57fe5b021790555060019050611ae1565b600090505b92915050565b60003373ffffffffffffffffffffffffffffffffffffffff166001600085815260200190815260200160002060030160009054906101000a900473ffffffffffffffffffffffffffffffffffffffff1673ffffffffffffffffffffffffffffffffffffffff161415611b775781600160008581526020019081526020016000206007018190555060019050611b7c565b600090505b92915050565b6003602052806000526040600020600091509050806000015490806001018054600181600116156101000203166002900480601f016020809104026020016040519081016040528092919081815260200182805460018160011615610100020316600290048015611c345780601f10611c0957610100808354040283529160200191611c34565b820191906000526020600020905b815481529060010190602001808311611c1757829003601f168201915b5050505050908060020160009054906101000a900473ffffffffffffffffffffffffffffffffffffffff16908060030154908060040160009054906101000a900460ff16905085565b6000806002811115611c8b57fe5b600360003373ffffffffffffffffffffffffffffffffffffffff1673ffffffffffffffffffffffffffffffffffffffff16815260200190815260200160002060040160009054906101000a900460ff166002811115611ce657fe5b1480611d57575060016002811115611cfa57fe5b600360003373ffffffffffffffffffffffffffffffffffffffff1673ffffffffffffffffffffffffffffffffffffffff16815260200190815260200160002060040160009054906101000a900460ff166002811115611d5557fe5b145b1515611dcb576040517f08c379a00000000000000000000000000000000000000000000000000000000081526004018080602001828103825260198152602001807f557365722063616e6e6f74207265676973746572204c616e640000000000000081525060200191505060405180910390fd5b81600360008573ffffffffffffffffffffffffffffffffffffffff1673ffffffffffffffffffffffffffffffffffffffff16815260200190815260200160002060040160006101000a81548160ff02191690836002811115611e2957fe5b02179055506001905092915050565b60a0604051908101604052806000815260200160608152602001600073ffffffffffffffffffffffffffffffffffffffff1681526020016000815260200160006002811115611e8357fe5b81525090565b828054600181600116156101000203166002900490600052602060002090601f016020900481019282601f10611eca57805160ff1916838001178555611ef8565b82800160010185558215611ef8579182015b82811115611ef7578251825591602001919060010190611edc565b5b509050611f0591906120b4565b5090565b828054600181600116156101000203166002900490600052602060002090601f016020900481019282601f10611f425780548555611f7f565b82800160010185558215611f7f57600052602060002091601f016020900482015b82811115611f7e578254825591600101919060010190611f63565b5b509050611f8c91906120b4565b5090565b61012060405190810160405280600081526020016000815260200160608152602001600073ffffffffffffffffffffffffffffffffffffffff16815260200160608152602001600073ffffffffffffffffffffffffffffffffffffffff1681526020016000600181111561200057fe5b8152602001600073ffffffffffffffffffffffffffffffffffffffff168152602001600081525090565b8280548282559060005260206000209081019282156120a3579160200282015b828111156120a25782518260006101000a81548173ffffffffffffffffffffffffffffffffffffffff021916908373ffffffffffffffffffffffffffffffffffffffff1602179055509160200191906001019061204a565b5b5090506120b091906120d9565b5090565b6120d691905b808211156120d25760008160009055506001016120ba565b5090565b90565b61211991905b8082111561211557600081816101000a81549073ffffffffffffffffffffffffffffffffffffffff0219169055506001016120df565b5090565b9056fea165627a7a72305820aca1ca828689990c9ee9a59c58b5e096c493bef11c7bc592e49910dcceb28bb10029",
  "source": "pragma solidity ^0.5.0;\n\ncontract Land {\n  address owner;\n\n  enum privilege { admin, registrar, customer } // 0 -> admin, 1 -> registrar, 2-> customer\n  enum landState { owned, onSale } // 0 -> owned, 1 -> onSale\n\n  /*struct Coordinate {\n        uint x;\n        uint y;\n        uint z;\n        }\n\n        struct Dimension {\n        uint length;\n        uint width;\n        }*/\n\n  struct landDetails {\n    uint landId;\n    uint landTag;\n    string landOwnerName;\n    address payable landOwnerAddress;\n    address[] landPreviousOwners;\n    address landOwnerValidator;\n    landState landStatus;\n    address specifyLandTo;\n\t\tuint payableAmount;\n  }\n  \n  struct userDetails {\n    uint userId;\n    string userName;\n    address userAddress;\n    uint userBalance;\n    privilege userPrivilege;\n  }\n  \n  mapping(uint => landDetails) public Lands;\n  uint public landcount;\n  mapping(address => userDetails) public Users;\n  uint public usercount;\n \n\tevent transferMoney(address ownerAddress, uint amount);\n\n  constructor() public {\n    owner = msg.sender;\n    userDetails memory user = userDetails({\n      userId: usercount,\n          userName: \"admin\",\n          userAddress: msg.sender,\n          userPrivilege: privilege.admin,\n          userBalance: 100 \n          });\n    Users[msg.sender] = user;\n  }\n  \n  modifier isRegistrar {\n    require(Users[msg.sender].userPrivilege == privilege.registrar, \"User is not a registrar\");\n    _;\n  }\n  \n  modifier isAdmin {\n    require(Users[msg.sender].userPrivilege == privilege.admin, \"User is not admin\");\n    _;\n  }\n  \n  modifier isPrivileged {\n    require (Users[msg.sender].userPrivilege == privilege.admin || Users[msg.sender].userPrivilege == privilege.registrar, \"User cannot register Land\");\n    _;\n  }\n  \n  function registerLand(uint _landTag, address payable _landOwnerAddress) public isPrivileged returns (bool) {\n    userDetails memory user = Users[_landOwnerAddress];\n    if (user.userAddress != address(0) && Lands[_landTag].landTag == 0) {\n      landcount++;\n      landDetails memory land = landDetails({\n        landId: landcount,\n            landTag: _landTag,\n            landOwnerName: user.userName,\n            landOwnerAddress: _landOwnerAddress,\n            landPreviousOwners: new address[](0),\n            landOwnerValidator: msg.sender,\n            specifyLandTo: address(0),\n\t\t\t\t\t\tpayableAmount: 0,\n            landStatus: landState.owned\n            });\n      Lands[_landTag] = land;\n      return true;\n    }\n    return false;\n  }\n\n  function chUserPrivilege(address _userAddress, privilege _Privilege) public isPrivileged returns (bool) {\n    Users[_userAddress].userPrivilege = _Privilege;\n    return true;\n  }\n\n  function chLandStatus(uint _landTag, landState _landState) public returns (bool) {\n    if (Lands[_landTag].landOwnerAddress == msg.sender) {\n      Lands[_landTag].landStatus = _landState;\n      return true;\n    }\n    return false;\n  }\n\n  function chLandPayableAmount(uint _landTag, uint _payableAmount) public returns (bool) {\n    if (Lands[_landTag].landOwnerAddress == msg.sender) {\n      Lands[_landTag].payableAmount = _payableAmount;\n      return true;\n    }\n    return false;\n  }\n\n  function registerUser(string memory _userName, address _userAddress) public isAdmin returns (bool) { \n    if (Users[_userAddress].userAddress == address(0)) {\n      usercount++;\n      userDetails memory user = userDetails({\n        userId: usercount,\n            userName: _userName,\n            userAddress: _userAddress,\n            userPrivilege: privilege.customer,\n            userBalance: _userAddress.balance\n            });\n      Users[_userAddress] = user;\n      return true;\n    }\n    return false;\n  }\n  \n  function registerCustomer(string memory _userName) public returns (bool) { \n    if (Users[msg.sender].userAddress == address(0)) {\n      usercount++;\n      userDetails memory user = userDetails({\n        userId: usercount,\n            userName: _userName,\n            userAddress: msg.sender,\n            userPrivilege: privilege.customer,\n            userBalance: msg.sender.balance\n            });\n      Users[msg.sender] = user;\n      return true;\n    }\n    return false;\n  }\n  \n  function transactLand(uint _landTag) public payable returns (bool) {\n    \n    userDetails storage userBuy = Users[msg.sender];\n    landDetails storage land = Lands[_landTag];\n    if (land.landStatus == landState.onSale) {// && \n\t\t\t\t//userBuy.userAddress.balance >= land.payableAmount) {\n  \n      userDetails storage userSell = Users[land.landOwnerAddress];\n       \n\t\t\tland.landOwnerAddress.send(land.payableAmount * 1 ether);\n\t\t\t\n      land.landPreviousOwners.push(land.landOwnerAddress);\n\t\t  land.landOwnerAddress = msg.sender;\n      land.landOwnerName = Users[msg.sender].userName;\n      land.landStatus = landState.owned;\n        \n      landDetails memory landmem = land;\n      Lands[_landTag] = landmem;\n      return true;\n    }\n    return false;\n  }  \n}\n",
  "sourcePath": "/home/gadsater/sandbox/sih/land_registry/contracts/Land.sol",
  "compiler": {
    "name": "solc",
    "version": "0.5.0+commit.1d4f565a.Emscripten.clang"
  },
  "schemaVersion": "3.0.2",
  "updatedAt": "2019-03-14T00:30:35.020Z",
  "devdoc": {
    "methods": {}
  },
  "userdoc": {
    "methods": {}
  }
}