{
  "contractName": "LandRegistry",
  "abi": [
    {
      "constant": true,
      "inputs": [],
      "name": "usercount",
      "outputs": [
        {
          "name": "",
          "type": "uint256"
        }
      ],
      "payable": false,
      "stateMutability": "view",
      "type": "function",
      "signature": "0x0f322c1e"
    },
    {
      "constant": true,
      "inputs": [
        {
          "name": "",
          "type": "uint256"
        }
      ],
      "name": "Lands",
      "outputs": [
        {
          "name": "landId",
          "type": "uint256"
        },
        {
          "name": "landTag",
          "type": "uint256"
        },
        {
          "name": "landOwnerName",
          "type": "string"
        },
        {
          "name": "landOwnerAddress",
          "type": "address"
        },
        {
          "name": "landOwnerValidator",
          "type": "address"
        },
        {
          "name": "landStatus",
          "type": "uint8"
        },
        {
          "name": "specifyLandTo",
          "type": "address"
        }
      ],
      "payable": false,
      "stateMutability": "view",
      "type": "function",
      "signature": "0x226897b5"
    },
    {
      "constant": true,
      "inputs": [],
      "name": "landcount",
      "outputs": [
        {
          "name": "",
          "type": "uint256"
        }
      ],
      "payable": false,
      "stateMutability": "view",
      "type": "function",
      "signature": "0x23e6267a"
    },
    {
      "constant": true,
      "inputs": [
        {
          "name": "",
          "type": "address"
        }
      ],
      "name": "Users",
      "outputs": [
        {
          "name": "userId",
          "type": "uint256"
        },
        {
          "name": "userName",
          "type": "string"
        },
        {
          "name": "userAddress",
          "type": "address"
        },
        {
          "name": "userBalance",
          "type": "uint256"
        },
        {
          "name": "userPrivilege",
          "type": "uint8"
        }
      ],
      "payable": false,
      "stateMutability": "view",
      "type": "function",
      "signature": "0x99b956a0"
    },
    {
      "inputs": [],
      "payable": false,
      "stateMutability": "nonpayable",
      "type": "constructor",
      "signature": "constructor"
    },
    {
      "constant": false,
      "inputs": [
        {
          "name": "_landTag",
          "type": "uint256"
        },
        {
          "name": "_landOwnerAddress",
          "type": "address"
        }
      ],
      "name": "registerLand",
      "outputs": [
        {
          "name": "",
          "type": "bool"
        }
      ],
      "payable": false,
      "stateMutability": "nonpayable",
      "type": "function",
      "signature": "0x27e3e83a"
    },
    {
      "constant": false,
      "inputs": [
        {
          "name": "_userAddress",
          "type": "address"
        },
        {
          "name": "_Privilege",
          "type": "uint8"
        }
      ],
      "name": "chUserPrivilege",
      "outputs": [
        {
          "name": "",
          "type": "bool"
        }
      ],
      "payable": false,
      "stateMutability": "nonpayable",
      "type": "function",
      "signature": "0xda5755e8"
    },
    {
      "constant": false,
      "inputs": [
        {
          "name": "_landId",
          "type": "uint256"
        },
        {
          "name": "_landState",
          "type": "uint8"
        }
      ],
      "name": "chLandStatus",
      "outputs": [
        {
          "name": "",
          "type": "bool"
        }
      ],
      "payable": false,
      "stateMutability": "nonpayable",
      "type": "function",
      "signature": "0x2b1f9171"
    },
    {
      "constant": false,
      "inputs": [
        {
          "name": "_userName",
          "type": "string"
        },
        {
          "name": "_userAddress",
          "type": "address"
        }
      ],
      "name": "registerUser",
      "outputs": [
        {
          "name": "",
          "type": "bool"
        }
      ],
      "payable": false,
      "stateMutability": "nonpayable",
      "type": "function",
      "signature": "0x0e54b872"
    },
    {
      "constant": false,
      "inputs": [
        {
          "name": "_userName",
          "type": "string"
        }
      ],
      "name": "registerUser",
      "outputs": [
        {
          "name": "",
          "type": "bool"
        }
      ],
      "payable": false,
      "stateMutability": "nonpayable",
      "type": "function",
      "signature": "0x704f1b94"
    },
    {
      "constant": false,
      "inputs": [
        {
          "name": "_landId",
          "type": "uint256"
        },
        {
          "name": "amount",
          "type": "uint256"
        }
      ],
      "name": "transactLand",
      "outputs": [
        {
          "name": "",
          "type": "bool"
        }
      ],
      "payable": true,
      "stateMutability": "payable",
      "type": "function",
      "signature": "0xb9c674f7"
    }
  ],
  "bytecode": "0x60806040523480156200001157600080fd5b50336000806101000a81548173ffffffffffffffffffffffffffffffffffffffff021916908373ffffffffffffffffffffffffffffffffffffffff1602179055506200005c620001cf565b60a06040519081016040528060045481526020016040805190810160405280600581526020017f61646d696e00000000000000000000000000000000000000000000000000000081525081526020013373ffffffffffffffffffffffffffffffffffffffff1681526020016064815260200160006002811115620000dc57fe5b815250905080600360003373ffffffffffffffffffffffffffffffffffffffff1673ffffffffffffffffffffffffffffffffffffffff1681526020019081526020016000206000820151816000015560208201518160010190805190602001906200014992919062000221565b5060408201518160020160006101000a81548173ffffffffffffffffffffffffffffffffffffffff021916908373ffffffffffffffffffffffffffffffffffffffff1602179055506060820151816003015560808201518160040160006101000a81548160ff02191690836002811115620001c057fe5b021790555090505050620002d0565b60a0604051908101604052806000815260200160608152602001600073ffffffffffffffffffffffffffffffffffffffff16815260200160008152602001600060028111156200021b57fe5b81525090565b828054600181600116156101000203166002900490600052602060002090601f016020900481019282601f106200026457805160ff191683800117855562000295565b8280016001018555821562000295579182015b828111156200029457825182559160200191906001019062000277565b5b509050620002a49190620002a8565b5090565b620002cd91905b80821115620002c9576000816000905550600101620002af565b5090565b90565b611fb380620002e06000396000f3fe6080604052600436106100a4576000357c0100000000000000000000000000000000000000000000000000000000900463ffffffff1680630e54b872146100a95780630f322c1e146101a9578063226897b5146101d457806323e6267a1461034457806327e3e83a1461036f5780632b1f9171146103e2578063704f1b941461044257806399b956a014610522578063b9c674f714610642578063da5755e814610692575b600080fd5b3480156100b557600080fd5b5061018f600480360360408110156100cc57600080fd5b81019080803590602001906401000000008111156100e957600080fd5b8201836020820111156100fb57600080fd5b8035906020019184600183028401116401000000008311171561011d57600080fd5b91908080601f016020809104026020016040519081016040528093929190818152602001838380828437600081840152601f19601f820116905080830192505050505050509192919290803573ffffffffffffffffffffffffffffffffffffffff169060200190929190505050610708565b604051808215151515815260200191505060405180910390f35b3480156101b557600080fd5b506101be6109de565b6040518082815260200191505060405180910390f35b3480156101e057600080fd5b5061020d600480360360208110156101f757600080fd5b81019080803590602001909291905050506109e4565b60405180888152602001878152602001806020018673ffffffffffffffffffffffffffffffffffffffff1673ffffffffffffffffffffffffffffffffffffffff1681526020018573ffffffffffffffffffffffffffffffffffffffff1673ffffffffffffffffffffffffffffffffffffffff16815260200184600181111561029157fe5b60ff1681526020018373ffffffffffffffffffffffffffffffffffffffff1673ffffffffffffffffffffffffffffffffffffffff168152602001828103825287818151815260200191508051906020019080838360005b838110156103035780820151818401526020810190506102e8565b50505050905090810190601f1680156103305780820380516001836020036101000a031916815260200191505b509850505050505050505060405180910390f35b34801561035057600080fd5b50610359610b2b565b6040518082815260200191505060405180910390f35b34801561037b57600080fd5b506103c86004803603604081101561039257600080fd5b8101908080359060200190929190803573ffffffffffffffffffffffffffffffffffffffff169060200190929190505050610b31565b604051808215151515815260200191505060405180910390f35b3480156103ee57600080fd5b506104286004803603604081101561040557600080fd5b8101908080359060200190929190803560ff1690602001909291905050506110bf565b604051808215151515815260200191505060405180910390f35b34801561044e57600080fd5b506105086004803603602081101561046557600080fd5b810190808035906020019064010000000081111561048257600080fd5b82018360208201111561049457600080fd5b803590602001918460018302840111640100000000831117156104b657600080fd5b91908080601f016020809104026020016040519081016040528093929190818152602001838380828437600081840152601f19601f820116905080830192505050505050509192919290505050611176565b604051808215151515815260200191505060405180910390f35b34801561052e57600080fd5b506105716004803603602081101561054557600080fd5b81019080803573ffffffffffffffffffffffffffffffffffffffff16906020019092919050505061136e565b60405180868152602001806020018573ffffffffffffffffffffffffffffffffffffffff1673ffffffffffffffffffffffffffffffffffffffff1681526020018481526020018360028111156105c357fe5b60ff168152602001828103825286818151815260200191508051906020019080838360005b838110156106035780820151818401526020810190506105e8565b50505050905090810190601f1680156106305780820380516001836020036101000a031916815260200191505b50965050505050505060405180910390f35b6106786004803603604081101561065857600080fd5b810190808035906020019092919080359060200190929190505050611469565b604051808215151515815260200191505060405180910390f35b34801561069e57600080fd5b506106ee600480360360408110156106b557600080fd5b81019080803573ffffffffffffffffffffffffffffffffffffffff169060200190929190803560ff169060200190929190505050611aef565b604051808215151515815260200191505060405180910390f35b600080600281111561071657fe5b600360003373ffffffffffffffffffffffffffffffffffffffff1673ffffffffffffffffffffffffffffffffffffffff16815260200190815260200160002060040160009054906101000a900460ff16600281111561077157fe5b1415156107e6576040517f08c379a00000000000000000000000000000000000000000000000000000000081526004018080602001828103825260118152602001807f55736572206973206e6f742061646d696e00000000000000000000000000000081525060200191505060405180910390fd5b600073ffffffffffffffffffffffffffffffffffffffff16600360008473ffffffffffffffffffffffffffffffffffffffff1673ffffffffffffffffffffffffffffffffffffffff16815260200190815260200160002060020160009054906101000a900473ffffffffffffffffffffffffffffffffffffffff1673ffffffffffffffffffffffffffffffffffffffff1614156109d357600460008154809291906001019190505550610897611caa565b60a06040519081016040528060045481526020018581526020018473ffffffffffffffffffffffffffffffffffffffff168152602001606481526020016002808111156108e057fe5b815250905080600360008573ffffffffffffffffffffffffffffffffffffffff1673ffffffffffffffffffffffffffffffffffffffff16815260200190815260200160002060008201518160000155602082015181600101908051906020019061094b929190611cfb565b5060408201518160020160006101000a81548173ffffffffffffffffffffffffffffffffffffffff021916908373ffffffffffffffffffffffffffffffffffffffff1602179055506060820151816003015560808201518160040160006101000a81548160ff021916908360028111156109c157fe5b021790555090505060019150506109d8565b600090505b92915050565b60045481565b6001602052806000526040600020600091509050806000015490806001015490806002018054600181600116156101000203166002900480601f016020809104026020016040519081016040528092919081815260200182805460018160011615610100020316600290048015610a9c5780601f10610a7157610100808354040283529160200191610a9c565b820191906000526020600020905b815481529060010190602001808311610a7f57829003601f168201915b5050505050908060030160009054906101000a900473ffffffffffffffffffffffffffffffffffffffff16908060050160009054906101000a900473ffffffffffffffffffffffffffffffffffffffff16908060050160149054906101000a900460ff16908060060160009054906101000a900473ffffffffffffffffffffffffffffffffffffffff16905087565b60025481565b6000806002811115610b3f57fe5b600360003373ffffffffffffffffffffffffffffffffffffffff1673ffffffffffffffffffffffffffffffffffffffff16815260200190815260200160002060040160009054906101000a900460ff166002811115610b9a57fe5b1480610c0b575060016002811115610bae57fe5b600360003373ffffffffffffffffffffffffffffffffffffffff1673ffffffffffffffffffffffffffffffffffffffff16815260200190815260200160002060040160009054906101000a900460ff166002811115610c0957fe5b145b1515610c7f576040517f08c379a00000000000000000000000000000000000000000000000000000000081526004018080602001828103825260198152602001807f557365722063616e6e6f74207265676973746572204c616e640000000000000081525060200191505060405180910390fd5b610c87611caa565b600360008473ffffffffffffffffffffffffffffffffffffffff1673ffffffffffffffffffffffffffffffffffffffff16815260200190815260200160002060a0604051908101604052908160008201548152602001600182018054600181600116156101000203166002900480601f016020809104026020016040519081016040528092919081815260200182805460018160011615610100020316600290048015610d755780601f10610d4a57610100808354040283529160200191610d75565b820191906000526020600020905b815481529060010190602001808311610d5857829003601f168201915b505050505081526020016002820160009054906101000a900473ffffffffffffffffffffffffffffffffffffffff1673ffffffffffffffffffffffffffffffffffffffff1673ffffffffffffffffffffffffffffffffffffffff168152602001600382015481526020016004820160009054906101000a900460ff166002811115610dfc57fe5b6002811115610e0757fe5b815250509050600073ffffffffffffffffffffffffffffffffffffffff16816040015173ffffffffffffffffffffffffffffffffffffffff1614158015610e64575060006001600086815260200190815260200160002060010154145b156110b357600260008154809291906001019190505550610e83611d7b565b610100604051908101604052806002548152602001868152602001836020015181526020018573ffffffffffffffffffffffffffffffffffffffff1681526020016000604051908082528060200260200182016040528015610ef45781602001602082028038833980820191505090505b5081526020013373ffffffffffffffffffffffffffffffffffffffff16815260200160006001811115610f2357fe5b8152602001600073ffffffffffffffffffffffffffffffffffffffff168152509050806001600087815260200190815260200160002060008201518160000155602082015181600101556040820151816002019080519060200190610f89929190611cfb565b5060608201518160030160006101000a81548173ffffffffffffffffffffffffffffffffffffffff021916908373ffffffffffffffffffffffffffffffffffffffff1602179055506080820151816004019080519060200190610fed929190611e0e565b5060a08201518160050160006101000a81548173ffffffffffffffffffffffffffffffffffffffff021916908373ffffffffffffffffffffffffffffffffffffffff16021790555060c08201518160050160146101000a81548160ff0219169083600181111561105957fe5b021790555060e08201518160060160006101000a81548173ffffffffffffffffffffffffffffffffffffffff021916908373ffffffffffffffffffffffffffffffffffffffff1602179055509050506001925050506110b9565b60009150505b92915050565b60003373ffffffffffffffffffffffffffffffffffffffff166001600085815260200190815260200160002060030160009054906101000a900473ffffffffffffffffffffffffffffffffffffffff1673ffffffffffffffffffffffffffffffffffffffff16141561116b57816001600085815260200190815260200160002060050160146101000a81548160ff0219169083600181111561115d57fe5b021790555060019050611170565b600090505b92915050565b60008073ffffffffffffffffffffffffffffffffffffffff16600360003373ffffffffffffffffffffffffffffffffffffffff1673ffffffffffffffffffffffffffffffffffffffff16815260200190815260200160002060020160009054906101000a900473ffffffffffffffffffffffffffffffffffffffff1673ffffffffffffffffffffffffffffffffffffffff16141561136457600460008154809291906001019190505550611228611caa565b60a06040519081016040528060045481526020018481526020013373ffffffffffffffffffffffffffffffffffffffff1681526020016064815260200160028081111561127157fe5b815250905080600360003373ffffffffffffffffffffffffffffffffffffffff1673ffffffffffffffffffffffffffffffffffffffff1681526020019081526020016000206000820151816000015560208201518160010190805190602001906112dc929190611cfb565b5060408201518160020160006101000a81548173ffffffffffffffffffffffffffffffffffffffff021916908373ffffffffffffffffffffffffffffffffffffffff1602179055506060820151816003015560808201518160040160006101000a81548160ff0219169083600281111561135257fe5b02179055509050506001915050611369565b600090505b919050565b6003602052806000526040600020600091509050806000015490806001018054600181600116156101000203166002900480601f0160208091040260200160405190810160405280929190818152602001828054600181600116156101000203166002900480156114205780601f106113f557610100808354040283529160200191611420565b820191906000526020600020905b81548152906001019060200180831161140357829003601f168201915b5050505050908060020160009054906101000a900473ffffffffffffffffffffffffffffffffffffffff16908060030154908060040160009054906101000a900460ff16905085565b600080600360003373ffffffffffffffffffffffffffffffffffffffff1673ffffffffffffffffffffffffffffffffffffffff1681526020019081526020016000209050828160030154101515611ae35760006001600086815260200190815260200160002090506001808111156114dd57fe5b8160050160149054906101000a900460ff1660018111156114fa57fe5b1415611ae1576000600360008360030160009054906101000a900473ffffffffffffffffffffffffffffffffffffffff1673ffffffffffffffffffffffffffffffffffffffff1673ffffffffffffffffffffffffffffffffffffffff1681526020019081526020016000209050848160030160008282540192505081905550848360030160008282540392505081905550816004018260030160009054906101000a900473ffffffffffffffffffffffffffffffffffffffff1690806001815401808255809150509060018203906000526020600020016000909192909190916101000a81548173ffffffffffffffffffffffffffffffffffffffff021916908373ffffffffffffffffffffffffffffffffffffffff16021790555050338260030160006101000a81548173ffffffffffffffffffffffffffffffffffffffff021916908373ffffffffffffffffffffffffffffffffffffffff160217905550600360003373ffffffffffffffffffffffffffffffffffffffff1673ffffffffffffffffffffffffffffffffffffffff1681526020019081526020016000206001018260020190805460018160011615610100020316600290046116bf929190611e98565b5060008260050160146101000a81548160ff021916908360018111156116e157fe5b02179055506116ee611d7b565b8261010060405190810160405290816000820154815260200160018201548152602001600282018054600181600116156101000203166002900480601f0160208091040260200160405190810160405280929190818152602001828054600181600116156101000203166002900480156117a95780601f1061177e576101008083540402835291602001916117a9565b820191906000526020600020905b81548152906001019060200180831161178c57829003601f168201915b505050505081526020016003820160009054906101000a900473ffffffffffffffffffffffffffffffffffffffff1673ffffffffffffffffffffffffffffffffffffffff1673ffffffffffffffffffffffffffffffffffffffff1681526020016004820180548060200260200160405190810160405280929190818152602001828054801561188d57602002820191906000526020600020905b8160009054906101000a900473ffffffffffffffffffffffffffffffffffffffff1673ffffffffffffffffffffffffffffffffffffffff1681526020019060010190808311611843575b505050505081526020016005820160009054906101000a900473ffffffffffffffffffffffffffffffffffffffff1673ffffffffffffffffffffffffffffffffffffffff1673ffffffffffffffffffffffffffffffffffffffff1681526020016005820160149054906101000a900460ff16600181111561190a57fe5b600181111561191557fe5b81526020016006820160009054906101000a900473ffffffffffffffffffffffffffffffffffffffff1673ffffffffffffffffffffffffffffffffffffffff1673ffffffffffffffffffffffffffffffffffffffff168152505090508060016000898152602001908152602001600020600082015181600001556020820151816001015560408201518160020190805190602001906119b5929190611cfb565b5060608201518160030160006101000a81548173ffffffffffffffffffffffffffffffffffffffff021916908373ffffffffffffffffffffffffffffffffffffffff1602179055506080820151816004019080519060200190611a19929190611e0e565b5060a08201518160050160006101000a81548173ffffffffffffffffffffffffffffffffffffffff021916908373ffffffffffffffffffffffffffffffffffffffff16021790555060c08201518160050160146101000a81548160ff02191690836001811115611a8557fe5b021790555060e08201518160060160006101000a81548173ffffffffffffffffffffffffffffffffffffffff021916908373ffffffffffffffffffffffffffffffffffffffff1602179055509050506001945050505050611ae9565b505b60009150505b92915050565b6000806002811115611afd57fe5b600360003373ffffffffffffffffffffffffffffffffffffffff1673ffffffffffffffffffffffffffffffffffffffff16815260200190815260200160002060040160009054906101000a900460ff166002811115611b5857fe5b1480611bc9575060016002811115611b6c57fe5b600360003373ffffffffffffffffffffffffffffffffffffffff1673ffffffffffffffffffffffffffffffffffffffff16815260200190815260200160002060040160009054906101000a900460ff166002811115611bc757fe5b145b1515611c3d576040517f08c379a00000000000000000000000000000000000000000000000000000000081526004018080602001828103825260198152602001807f557365722063616e6e6f74207265676973746572204c616e640000000000000081525060200191505060405180910390fd5b81600360008573ffffffffffffffffffffffffffffffffffffffff1673ffffffffffffffffffffffffffffffffffffffff16815260200190815260200160002060040160006101000a81548160ff02191690836002811115611c9b57fe5b02179055506001905092915050565b60a0604051908101604052806000815260200160608152602001600073ffffffffffffffffffffffffffffffffffffffff1681526020016000815260200160006002811115611cf557fe5b81525090565b828054600181600116156101000203166002900490600052602060002090601f016020900481019282601f10611d3c57805160ff1916838001178555611d6a565b82800160010185558215611d6a579182015b82811115611d69578251825591602001919060010190611d4e565b5b509050611d779190611f1f565b5090565b61010060405190810160405280600081526020016000815260200160608152602001600073ffffffffffffffffffffffffffffffffffffffff16815260200160608152602001600073ffffffffffffffffffffffffffffffffffffffff16815260200160006001811115611deb57fe5b8152602001600073ffffffffffffffffffffffffffffffffffffffff1681525090565b828054828255906000526020600020908101928215611e87579160200282015b82811115611e865782518260006101000a81548173ffffffffffffffffffffffffffffffffffffffff021916908373ffffffffffffffffffffffffffffffffffffffff16021790555091602001919060010190611e2e565b5b509050611e949190611f44565b5090565b828054600181600116156101000203166002900490600052602060002090601f016020900481019282601f10611ed15780548555611f0e565b82800160010185558215611f0e57600052602060002091601f016020900482015b82811115611f0d578254825591600101919060010190611ef2565b5b509050611f1b9190611f1f565b5090565b611f4191905b80821115611f3d576000816000905550600101611f25565b5090565b90565b611f8491905b80821115611f8057600081816101000a81549073ffffffffffffffffffffffffffffffffffffffff021916905550600101611f4a565b5090565b9056fea165627a7a7230582024247de4953de45ad7cf129219c4659892aa2c925add55f064259174330843050029",
  "source": "pragma solidity ^0.5.0;\n\ncontract LandRegistry {\n  address owner;\n\n  enum privilege { admin, registrar, customer } // 0 -> admin, 1 -> registrar, 2-> customer\n  enum landState { owned, onSale } // 0 -> owned, 1 -> onSale\n\n  /*struct Coordinate {\n        uint x;\n        uint y;\n        uint z;\n        }\n\n        struct Dimension {\n        uint length;\n        uint width;\n        }*/\n\n  struct landDetails {\n    uint landId;\n    uint landTag;\n    string landOwnerName;\n    address payable landOwnerAddress;\n    address[] landPreviousOwners;\n    address landOwnerValidator;\n    landState landStatus;\n    address specifyLandTo; \n  }\n  \n  struct userDetails {\n    uint userId;\n    string userName;\n    address userAddress;\n    uint userBalance;\n    privilege userPrivilege;\n  }\n  \n  mapping(uint => landDetails) public Lands;\n  uint public landcount;\n  mapping(address => userDetails) public Users;\n  uint public usercount;\n  \n  constructor() public {\n    owner = msg.sender;\n    userDetails memory user = userDetails({\n      userId: usercount,\n          userName: \"admin\",\n          userAddress: msg.sender,\n          userPrivilege: privilege.admin,\n          userBalance: 100 \n          });\n    Users[msg.sender] = user;\n  }\n  \n  modifier isRegistrar {\n    require(Users[msg.sender].userPrivilege == privilege.registrar, \"User is not a registrar\");\n    _;\n  }\n  \n  modifier isAdmin {\n    require(Users[msg.sender].userPrivilege == privilege.admin, \"User is not admin\");\n    _;\n  }\n  \n  modifier isPrivileged {\n    require (Users[msg.sender].userPrivilege == privilege.admin || Users[msg.sender].userPrivilege == privilege.registrar, \"User cannot register Land\");\n    _;\n  }\n  \n  function registerLand(uint _landTag, address payable _landOwnerAddress) public isPrivileged returns (bool) {\n    userDetails memory user = Users[_landOwnerAddress];\n    if (user.userAddress != address(0) && Lands[_landTag].landTag == 0) {\n      landcount++;\n      landDetails memory land = landDetails({\n        landId: landcount,\n            landTag: _landTag,\n            landOwnerName: user.userName,\n            landOwnerAddress: _landOwnerAddress,\n            landPreviousOwners: new address[](0),\n            landOwnerValidator: msg.sender,\n            specifyLandTo: address(0),\n            landStatus: landState.owned\n            });\n      Lands[_landTag] = land;\n      return true;\n    }\n    return false;\n  }\n\n  function chUserPrivilege(address _userAddress, privilege _Privilege) public isPrivileged returns (bool) {\n    Users[_userAddress].userPrivilege = _Privilege;\n    return true;\n  }\n\n  function chLandStatus(uint _landId, landState _landState) public returns (bool) {\n    if (Lands[_landId].landOwnerAddress == msg.sender) {\n      Lands[_landId].landStatus = _landState;\n      return true;\n    }\n    return false;\n  }\n  \n  function registerUser(string memory _userName, address _userAddress) public isAdmin returns (bool) { \n    if (Users[_userAddress].userAddress == address(0)) {\n      usercount++;\n      userDetails memory user = userDetails({\n        userId: usercount,\n            userName: _userName,\n            userAddress: _userAddress,\n            userPrivilege: privilege.customer,\n            userBalance: 100\n            });\n      Users[_userAddress] = user;\n      return true;\n    }\n    return false;\n  }\n  \n  function registerUser(string memory _userName) public returns (bool) { \n    if (Users[msg.sender].userAddress == address(0)) {\n      usercount++;\n      userDetails memory user = userDetails({\n        userId: usercount,\n            userName: _userName,\n            userAddress: msg.sender,\n            userPrivilege: privilege.customer,\n            userBalance: 100\n            });\n      Users[msg.sender] = user;\n      return true;\n    }\n    return false;\n  }\n  \n  function transactLand(uint _landId, uint amount) public payable returns (bool) {\n    \n    userDetails storage userBuy = Users[msg.sender];\n    if(userBuy.userBalance >= amount) {\n    \n      landDetails storage land = Lands[_landId];\n      if (land.landStatus == landState.onSale) {\n    \n        userDetails storage userSell = Users[land.landOwnerAddress];\n        \n        userSell.userBalance += amount;\n        userBuy.userBalance -= amount;\n        \n        land.landPreviousOwners.push(land.landOwnerAddress);\n        land.landOwnerAddress = msg.sender;\n        land.landOwnerName = Users[msg.sender].userName;\n        land.landStatus = landState.owned;\n        \n        landDetails memory landmem = land;\n        Lands[_landId] = landmem;\n        return true;\n      }\n    }\n    return false;\n  }  \n}\n",
  "sourcePath": "/home/gadsater/sandbox/sih/land_registry/contracts/LandRegistry.sol",
  "compiler": {
    "name": "solc",
    "version": "0.5.0+commit.1d4f565a.Emscripten.clang"
  },
  "schemaVersion": "3.0.2",
  "updatedAt": "2019-03-07T18:00:14.957Z",
  "devdoc": {
    "methods": {}
  },
  "userdoc": {
    "methods": {}
  }
}