{
  "contractName": "LandRegistry",
  "abi": [
    {
      "constant": true,
      "inputs": [],
      "name": "usercount",
      "outputs": [
        {
          "name": "",
          "type": "uint256"
        }
      ],
      "payable": false,
      "stateMutability": "view",
      "type": "function",
      "signature": "0x0f322c1e"
    },
    {
      "constant": true,
      "inputs": [
        {
          "name": "",
          "type": "uint256"
        }
      ],
      "name": "Lands",
      "outputs": [
        {
          "name": "landId",
          "type": "uint256"
        },
        {
          "name": "landOwnerName",
          "type": "string"
        },
        {
          "name": "landOwnerAddress",
          "type": "address"
        },
        {
          "name": "landStatus",
          "type": "uint8"
        }
      ],
      "payable": false,
      "stateMutability": "view",
      "type": "function",
      "signature": "0x226897b5"
    },
    {
      "constant": true,
      "inputs": [],
      "name": "landcount",
      "outputs": [
        {
          "name": "",
          "type": "uint256"
        }
      ],
      "payable": false,
      "stateMutability": "view",
      "type": "function",
      "signature": "0x23e6267a"
    },
    {
      "constant": true,
      "inputs": [
        {
          "name": "",
          "type": "address"
        }
      ],
      "name": "Users",
      "outputs": [
        {
          "name": "userId",
          "type": "uint256"
        },
        {
          "name": "userName",
          "type": "string"
        },
        {
          "name": "userAddress",
          "type": "address"
        },
        {
          "name": "userPrivilege",
          "type": "uint8"
        }
      ],
      "payable": false,
      "stateMutability": "view",
      "type": "function",
      "signature": "0x99b956a0"
    },
    {
      "inputs": [],
      "payable": false,
      "stateMutability": "nonpayable",
      "type": "constructor",
      "signature": "constructor"
    },
    {
      "constant": false,
      "inputs": [
        {
          "name": "_landOwnerName",
          "type": "string"
        },
        {
          "name": "_landOwnerAddress",
          "type": "address"
        },
        {
          "name": "_landStatus",
          "type": "uint8"
        }
      ],
      "name": "registerLand",
      "outputs": [],
      "payable": false,
      "stateMutability": "nonpayable",
      "type": "function",
      "signature": "0x5144bda2"
    },
    {
      "constant": false,
      "inputs": [
        {
          "name": "_userName",
          "type": "string"
        },
        {
          "name": "_userAddress",
          "type": "address"
        },
        {
          "name": "_userPrivilege",
          "type": "uint8"
        }
      ],
      "name": "registerUser",
      "outputs": [],
      "payable": false,
      "stateMutability": "nonpayable",
      "type": "function",
      "signature": "0xa4252498"
    },
    {
      "constant": false,
      "inputs": [
        {
          "name": "_landId",
          "type": "uint256"
        },
        {
          "name": "amount",
          "type": "uint256"
        }
      ],
      "name": "transactLand",
      "outputs": [
        {
          "name": "success",
          "type": "bool"
        }
      ],
      "payable": true,
      "stateMutability": "payable",
      "type": "function",
      "signature": "0xb9c674f7"
    }
  ],
  "bytecode": "0x60806040523480156200001157600080fd5b50336000806101000a81548173ffffffffffffffffffffffffffffffffffffffff021916908373ffffffffffffffffffffffffffffffffffffffff1602179055506200005c620001bd565b60806040519081016040528060045481526020016040805190810160405280600581526020017f61646d696e00000000000000000000000000000000000000000000000000000081525081526020013373ffffffffffffffffffffffffffffffffffffffff168152602001600280811115620000d457fe5b815250905080600360003373ffffffffffffffffffffffffffffffffffffffff1673ffffffffffffffffffffffffffffffffffffffff1681526020019081526020016000206000820151816000015560208201518160010190805190602001906200014192919062000208565b5060408201518160020160006101000a81548173ffffffffffffffffffffffffffffffffffffffff021916908373ffffffffffffffffffffffffffffffffffffffff16021790555060608201518160020160146101000a81548160ff02191690836002811115620001ae57fe5b021790555090505050620002b7565b6080604051908101604052806000815260200160608152602001600073ffffffffffffffffffffffffffffffffffffffff168152602001600060028111156200020257fe5b81525090565b828054600181600116156101000203166002900490600052602060002090601f016020900481019282601f106200024b57805160ff19168380011785556200027c565b828001600101855582156200027c579182015b828111156200027b5782518255916020019190600101906200025e565b5b5090506200028b91906200028f565b5090565b620002b491905b80821115620002b057600081600090555060010162000296565b5090565b90565b6110a380620002c76000396000f3fe608060405260043610610083576000357c0100000000000000000000000000000000000000000000000000000000900463ffffffff1680630f322c1e14610088578063226897b5146100b357806323e6267a146101b65780635144bda2146101e157806399b956a0146102d6578063a4252498146103ef578063b9c674f7146104e4575b600080fd5b34801561009457600080fd5b5061009d610534565b6040518082815260200191505060405180910390f35b3480156100bf57600080fd5b506100ec600480360360208110156100d657600080fd5b810190808035906020019092919050505061053a565b60405180858152602001806020018473ffffffffffffffffffffffffffffffffffffffff1673ffffffffffffffffffffffffffffffffffffffff16815260200183600181111561013857fe5b60ff168152602001828103825285818151815260200191508051906020019080838360005b8381101561017857808201518184015260208101905061015d565b50505050905090810190601f1680156101a55780820380516001836020036101000a031916815260200191505b509550505050505060405180910390f35b3480156101c257600080fd5b506101cb61062f565b6040518082815260200191505060405180910390f35b3480156101ed57600080fd5b506102d46004803603606081101561020457600080fd5b810190808035906020019064010000000081111561022157600080fd5b82018360208201111561023357600080fd5b8035906020019184600183028401116401000000008311171561025557600080fd5b91908080601f016020809104026020016040519081016040528093929190818152602001838380828437600081840152601f19601f820116905080830192505050505050509192919290803573ffffffffffffffffffffffffffffffffffffffff169060200190929190803560ff169060200190929190505050610635565b005b3480156102e257600080fd5b50610325600480360360208110156102f957600080fd5b81019080803573ffffffffffffffffffffffffffffffffffffffff16906020019092919050505061087b565b60405180858152602001806020018473ffffffffffffffffffffffffffffffffffffffff1673ffffffffffffffffffffffffffffffffffffffff16815260200183600281111561037157fe5b60ff168152602001828103825285818151815260200191508051906020019080838360005b838110156103b1578082015181840152602081019050610396565b50505050905090810190601f1680156103de5780820380516001836020036101000a031916815260200191505b509550505050505060405180910390f35b3480156103fb57600080fd5b506104e26004803603606081101561041257600080fd5b810190808035906020019064010000000081111561042f57600080fd5b82018360208201111561044157600080fd5b8035906020019184600183028401116401000000008311171561046357600080fd5b91908080601f016020809104026020016040519081016040528093929190818152602001838380828437600081840152601f19601f820116905080830192505050505050509192919290803573ffffffffffffffffffffffffffffffffffffffff169060200190929190803560ff169060200190929190505050610970565b005b61051a600480360360408110156104fa57600080fd5b810190808035906020019092919080359060200190929190505050610ab1565b604051808215151515815260200191505060405180910390f35b60045481565b6001602052806000526040600020600091509050806000015490806001018054600181600116156101000203166002900480601f0160208091040260200160405190810160405280929190818152602001828054600181600116156101000203166002900480156105ec5780601f106105c1576101008083540402835291602001916105ec565b820191906000526020600020905b8154815290600101906020018083116105cf57829003601f168201915b5050505050908060020160009054906101000a900473ffffffffffffffffffffffffffffffffffffffff16908060040160009054906101000a900460ff16905084565b60025481565b60028081111561064157fe5b600360003373ffffffffffffffffffffffffffffffffffffffff1673ffffffffffffffffffffffffffffffffffffffff16815260200190815260200160002060020160149054906101000a900460ff16600281111561069c57fe5b141515610711576040517f08c379a00000000000000000000000000000000000000000000000000000000081526004018080602001828103825260118152602001807f55736572206973206e6f742061646d696e00000000000000000000000000000081525060200191505060405180910390fd5b60026000815480929190600101919050555061072b610e6a565b60a06040519081016040528060025481526020018581526020018473ffffffffffffffffffffffffffffffffffffffff16815260200160006040519080825280602002602001820160405280156107915781602001602082028038833980820191505090505b5081526020018360018111156107a357fe5b8152509050806001600060025481526020019081526020016000206000820151816000015560208201518160010190805190602001906107e4929190610ebb565b5060408201518160020160006101000a81548173ffffffffffffffffffffffffffffffffffffffff021916908373ffffffffffffffffffffffffffffffffffffffff1602179055506060820151816003019080519060200190610848929190610f3b565b5060808201518160040160006101000a81548160ff0219169083600181111561086d57fe5b021790555090505050505050565b6003602052806000526040600020600091509050806000015490806001018054600181600116156101000203166002900480601f01602080910402602001604051908101604052809291908181526020018280546001816001161561010002031660029004801561092d5780601f106109025761010080835404028352916020019161092d565b820191906000526020600020905b81548152906001019060200180831161091057829003601f168201915b5050505050908060020160009054906101000a900473ffffffffffffffffffffffffffffffffffffffff16908060020160149054906101000a900460ff16905084565b60046000815480929190600101919050555061098a610fc5565b60806040519081016040528060045481526020018581526020018473ffffffffffffffffffffffffffffffffffffffff1681526020018360028111156109cc57fe5b815250905080600360008573ffffffffffffffffffffffffffffffffffffffff1673ffffffffffffffffffffffffffffffffffffffff168152602001908152602001600020600082015181600001556020820151816001019080519060200190610a37929190610ebb565b5060408201518160020160006101000a81548173ffffffffffffffffffffffffffffffffffffffff021916908373ffffffffffffffffffffffffffffffffffffffff16021790555060608201518160020160146101000a81548160ff02191690836002811115610aa357fe5b021790555090505050505050565b6000809050813373ffffffffffffffffffffffffffffffffffffffff16311115610e61576000600160008581526020019081526020016000209050806003018160020160009054906101000a900473ffffffffffffffffffffffffffffffffffffffff1690806001815401808255809150509060018203906000526020600020016000909192909190916101000a81548173ffffffffffffffffffffffffffffffffffffffff021916908373ffffffffffffffffffffffffffffffffffffffff16021790555050338160020160006101000a81548173ffffffffffffffffffffffffffffffffffffffff021916908373ffffffffffffffffffffffffffffffffffffffff160217905550610bc3610e6a565b8160a0604051908101604052908160008201548152602001600182018054600181600116156101000203166002900480601f016020809104026020016040519081016040528092919081815260200182805460018160011615610100020316600290048015610c735780601f10610c4857610100808354040283529160200191610c73565b820191906000526020600020905b815481529060010190602001808311610c5657829003601f168201915b505050505081526020016002820160009054906101000a900473ffffffffffffffffffffffffffffffffffffffff1673ffffffffffffffffffffffffffffffffffffffff1673ffffffffffffffffffffffffffffffffffffffff16815260200160038201805480602002602001604051908101604052809291908181526020018280548015610d5757602002820191906000526020600020905b8160009054906101000a900473ffffffffffffffffffffffffffffffffffffffff1673ffffffffffffffffffffffffffffffffffffffff1681526020019060010190808311610d0d575b505050505081526020016004820160009054906101000a900460ff166001811115610d7e57fe5b6001811115610d8957fe5b8152505090508060016000878152602001908152602001600020600082015181600001556020820151816001019080519060200190610dc9929190610ebb565b5060408201518160020160006101000a81548173ffffffffffffffffffffffffffffffffffffffff021916908373ffffffffffffffffffffffffffffffffffffffff1602179055506060820151816003019080519060200190610e2d929190610f3b565b5060808201518160040160006101000a81548160ff02191690836001811115610e5257fe5b02179055509050506001925050505b80905092915050565b60a0604051908101604052806000815260200160608152602001600073ffffffffffffffffffffffffffffffffffffffff1681526020016060815260200160006001811115610eb557fe5b81525090565b828054600181600116156101000203166002900490600052602060002090601f016020900481019282601f10610efc57805160ff1916838001178555610f2a565b82800160010185558215610f2a579182015b82811115610f29578251825591602001919060010190610f0e565b5b509050610f37919061100f565b5090565b828054828255906000526020600020908101928215610fb4579160200282015b82811115610fb35782518260006101000a81548173ffffffffffffffffffffffffffffffffffffffff021916908373ffffffffffffffffffffffffffffffffffffffff16021790555091602001919060010190610f5b565b5b509050610fc19190611034565b5090565b6080604051908101604052806000815260200160608152602001600073ffffffffffffffffffffffffffffffffffffffff1681526020016000600281111561100957fe5b81525090565b61103191905b8082111561102d576000816000905550600101611015565b5090565b90565b61107491905b8082111561107057600081816101000a81549073ffffffffffffffffffffffffffffffffffffffff02191690555060010161103a565b5090565b9056fea165627a7a723058209c7c75bf6f382c72143c344cde062456dcdaebd710f970aa7d4a18a0806214c20029",
  "source": "pragma solidity ^0.5.0;\n\ncontract LandRegistry {\n    address owner;\n\n    enum privilege { customer, registrar, admin }\n    enum landState { owned, onSale }\n\n    /*struct Coordinate {\n        uint x;\n        uint y;\n        uint z;\n    }\n\n    struct Dimension {\n        uint length;\n        uint width;\n    }*/\n\n    struct landDetails {\n        uint landId;\n        string landOwnerName;\n        address payable landOwnerAddress;\n        address[] landPreviousOwners;\n        landState landStatus;\n    }\n\n    struct userDetails {\n        uint userId;\n        string userName;\n        address userAddress;\n        privilege userPrivilege;\n    }\n\n    mapping(uint => landDetails) public Lands;\n    uint public landcount;\n    mapping(address => userDetails) public Users;\n    uint public usercount;\n\n    constructor() public {\n      owner = msg.sender;\n      userDetails memory user = userDetails({\n        userId: usercount,\n        userName: \"admin\",\n        userAddress: msg.sender,\n        userPrivilege: privilege.admin\n      });\n      Users[msg.sender] = user;\n    }\n\n    modifier isRegistrar {\n        require(Users[msg.sender].userPrivilege == privilege.registrar, \"User is not a registrar\");\n        _;\n    }\n\n    modifier isAdmin {\n        require(Users[msg.sender].userPrivilege == privilege.admin, \"User is not admin\");\n        _;\n    }\n\n    function registerLand(string memory _landOwnerName, address payable _landOwnerAddress, landState _landStatus)\n    public isAdmin  {\n      landcount++;\n      landDetails memory land = landDetails({\n        landId: landcount,\n        landOwnerName: _landOwnerName,\n        landOwnerAddress: _landOwnerAddress,\n        landPreviousOwners: new address[](0),\n        landStatus: _landStatus\n      });\n      Lands[landcount] = land;\n    }\n\n    function registerUser(string memory _userName, address _userAddress, privilege _userPrivilege)\n    public {\n      usercount++;\n      userDetails memory user = userDetails({\n        userId: usercount,\n        userName: _userName,\n        userAddress: _userAddress,\n        userPrivilege: _userPrivilege\n      });\n      Users[_userAddress] = user;\n    }\n\n    function transactLand(uint _landId, uint amount) public payable\n    returns (bool success) {\n      success = false;\n      if (msg.sender.balance > amount) {\n        landDetails storage land = Lands[_landId];\n        //land.landOwnerAddress.transfer(amount);\n        land.landPreviousOwners.push(land.landOwnerAddress);\n        land.landOwnerAddress = msg.sender;\n        landDetails memory landmem = land;\n        Lands[_landId] = landmem;\n        success = true;\n      }\n      return success;\n    }\n\n\n\n}\n",
  "sourcePath": "/home/gadsater/sandbox/sih/land_registry/contracts/LandRegistry.sol",
  "compiler": {
    "name": "solc",
    "version": "0.5.0+commit.1d4f565a.Emscripten.clang"
  },
  "schemaVersion": "3.0.1",
  "updatedAt": "2019-02-25T18:22:31.068Z",
  "devdoc": {
    "methods": {}
  },
  "userdoc": {
    "methods": {}
  }
}