{
  "contractName": "TestContract",
  "abi": [
    {
      "inputs": [],
      "payable": true,
      "stateMutability": "payable",
      "type": "constructor"
    },
    {
      "constant": false,
      "inputs": [
        {
          "name": "badUser",
          "type": "address"
        }
      ],
      "name": "removeUser",
      "outputs": [
        {
          "name": "success",
          "type": "bool"
        }
      ],
      "payable": false,
      "stateMutability": "nonpayable",
      "type": "function"
    },
    {
      "constant": false,
      "inputs": [
        {
          "name": "badImage",
          "type": "bytes32"
        }
      ],
      "name": "removeImage",
      "outputs": [
        {
          "name": "success",
          "type": "bool"
        }
      ],
      "payable": false,
      "stateMutability": "nonpayable",
      "type": "function"
    },
    {
      "constant": false,
      "inputs": [
        {
          "name": "handle",
          "type": "string"
        },
        {
          "name": "city",
          "type": "string"
        },
        {
          "name": "state",
          "type": "string"
        },
        {
          "name": "country",
          "type": "string"
        }
      ],
      "name": "registerNewUser",
      "outputs": [
        {
          "name": "success",
          "type": "bool"
        }
      ],
      "payable": false,
      "stateMutability": "nonpayable",
      "type": "function"
    },
    {
      "constant": false,
      "inputs": [
        {
          "name": "imageURL",
          "type": "string"
        },
        {
          "name": "SHA256notaryHash",
          "type": "bytes32"
        }
      ],
      "name": "addImagetoUser",
      "outputs": [
        {
          "name": "success",
          "type": "bool"
        }
      ],
      "payable": false,
      "stateMutability": "nonpayable",
      "type": "function"
    },
    {
      "constant": true,
      "inputs": [],
      "name": "getUsers",
      "outputs": [
        {
          "name": "",
          "type": "address[]"
        }
      ],
      "payable": false,
      "stateMutability": "view",
      "type": "function"
    },
    {
      "constant": true,
      "inputs": [
        {
          "name": "userAddress",
          "type": "address"
        }
      ],
      "name": "getUser",
      "outputs": [
        {
          "name": "",
          "type": "string"
        },
        {
          "name": "",
          "type": "string"
        },
        {
          "name": "",
          "type": "string"
        },
        {
          "name": "",
          "type": "string"
        },
        {
          "name": "",
          "type": "bytes32[]"
        }
      ],
      "payable": false,
      "stateMutability": "view",
      "type": "function"
    },
    {
      "constant": true,
      "inputs": [],
      "name": "getAllImages",
      "outputs": [
        {
          "name": "",
          "type": "bytes32[]"
        }
      ],
      "payable": false,
      "stateMutability": "view",
      "type": "function"
    },
    {
      "constant": true,
      "inputs": [
        {
          "name": "userAddress",
          "type": "address"
        }
      ],
      "name": "getUserImages",
      "outputs": [
        {
          "name": "",
          "type": "bytes32[]"
        }
      ],
      "payable": false,
      "stateMutability": "view",
      "type": "function"
    },
    {
      "constant": true,
      "inputs": [
        {
          "name": "SHA256notaryHash",
          "type": "bytes32"
        }
      ],
      "name": "getImage",
      "outputs": [
        {
          "name": "",
          "type": "string"
        },
        {
          "name": "",
          "type": "uint256"
        }
      ],
      "payable": false,
      "stateMutability": "view",
      "type": "function"
    }
  ],
  "bytecode": "0x6080604052336000806101000a81548173ffffffffffffffffffffffffffffffffffffffff021916908373ffffffffffffffffffffffffffffffffffffffff1602179055506116c1806100536000396000f3fe608060405260043610610098576000357c0100000000000000000000000000000000000000000000000000000000900463ffffffff168062ce8e3e1461009d57806352a18823146101095780636ced1ae9146101f35780636f77926b146102ae5780637b7284fc1461050457806398575188146105705780639f6c9358146105d9578063d0c700821461062c578063eb6bbd78146108d1575b600080fd5b3480156100a957600080fd5b506100b2610977565b6040518080602001828103825283818151815260200191508051906020019060200280838360005b838110156100f55780820151818401526020810190506100da565b505050509050019250505060405180910390f35b34801561011557600080fd5b506101d96004803603604081101561012c57600080fd5b810190808035906020019064010000000081111561014957600080fd5b82018360208201111561015b57600080fd5b8035906020019184600183028401116401000000008311171561017d57600080fd5b91908080601f016020809104026020016040519081016040528093929190818152602001838380828437600081840152601f19601f82011690508083019250505050505050919291929080359060200190929190505050610a05565b604051808215151515815260200191505060405180910390f35b3480156101ff57600080fd5b5061022c6004803603602081101561021657600080fd5b8101908080359060200190929190505050610ba0565b6040518080602001838152602001828103825284818151815260200191508051906020019080838360005b83811015610272578082015181840152602081019050610257565b50505050905090810190601f16801561029f5780820380516001836020036101000a031916815260200191505b50935050505060405180910390f35b3480156102ba57600080fd5b506102fd600480360360208110156102d157600080fd5b81019080803573ffffffffffffffffffffffffffffffffffffffff169060200190929190505050610c76565b60405180806020018060200180602001806020018060200186810386528b818151815260200191508051906020019080838360005b8381101561034d578082015181840152602081019050610332565b50505050905090810190601f16801561037a5780820380516001836020036101000a031916815260200191505b5086810385528a818151815260200191508051906020019080838360005b838110156103b3578082015181840152602081019050610398565b50505050905090810190601f1680156103e05780820380516001836020036101000a031916815260200191505b50868103845289818151815260200191508051906020019080838360005b838110156104195780820151818401526020810190506103fe565b50505050905090810190601f1680156104465780820380516001836020036101000a031916815260200191505b50868103835288818151815260200191508051906020019080838360005b8381101561047f578082015181840152602081019050610464565b50505050905090810190601f1680156104ac5780820380516001836020036101000a031916815260200191505b50868103825287818151815260200191508051906020019060200280838360005b838110156104e85780820151818401526020810190506104cd565b505050509050019a505050505050505050505060405180910390f35b34801561051057600080fd5b5061051961109d565b6040518080602001828103825283818151815260200191508051906020019060200280838360005b8381101561055c578082015181840152602081019050610541565b505050509050019250505060405180910390f35b34801561057c57600080fd5b506105bf6004803603602081101561059357600080fd5b81019080803573ffffffffffffffffffffffffffffffffffffffff1690602001909291905050506110f5565b604051808215151515815260200191505060405180910390f35b3480156105e557600080fd5b50610612600480360360208110156105fc57600080fd5b81019080803590602001909291905050506111ea565b604051808215151515815260200191505060405180910390f35b34801561063857600080fd5b506108b76004803603608081101561064f57600080fd5b810190808035906020019064010000000081111561066c57600080fd5b82018360208201111561067e57600080fd5b803590602001918460018302840111640100000000831117156106a057600080fd5b91908080601f016020809104026020016040519081016040528093929190818152602001838380828437600081840152601f19601f8201169050808301925050505050505091929192908035906020019064010000000081111561070357600080fd5b82018360208201111561071557600080fd5b8035906020019184600183028401116401000000008311171561073757600080fd5b91908080601f016020809104026020016040519081016040528093929190818152602001838380828437600081840152601f19601f8201169050808301925050505050505091929192908035906020019064010000000081111561079a57600080fd5b8201836020820111156107ac57600080fd5b803590602001918460018302840111640100000000831117156107ce57600080fd5b91908080601f016020809104026020016040519081016040528093929190818152602001838380828437600081840152601f19601f8201169050808301925050505050505091929192908035906020019064010000000081111561083157600080fd5b82018360208201111561084357600080fd5b8035906020019184600183028401116401000000008311171561086557600080fd5b91908080601f016020809104026020016040519081016040528093929190818152602001838380828437600081840152601f19601f82011690508083019250505050505050919291929050505061127b565b604051808215151515815260200191505060405180910390f35b3480156108dd57600080fd5b50610920600480360360208110156108f457600080fd5b81019080803573ffffffffffffffffffffffffffffffffffffffff1690602001909291905050506114c8565b6040518080602001828103825283818151815260200191508051906020019060200280838360005b83811015610963578082015181840152602081019050610948565b505050509050019250505060405180910390f35b606060048054806020026020016040519081016040528092919081815260200182805480156109fb57602002820191906000526020600020905b8160009054906101000a900473ffffffffffffffffffffffffffffffffffffffff1673ffffffffffffffffffffffffffffffffffffffff16815260200190600101908083116109b1575b5050505050905090565b6000803390506000600360003373ffffffffffffffffffffffffffffffffffffffff1673ffffffffffffffffffffffffffffffffffffffff168152602001908152602001600020600001805460018160011615610100020316600290049050148015610a7357506000845114155b15610b94576000600160008581526020019081526020016000206000018054600181600116156101000203166002900490501415610ad85760028390806001815401808255809150509060018203906000526020600020016000909192909190915055505b83600160008581526020019081526020016000206000019080519060200190610b02929190611562565b50426001600085815260200190815260200160002060010181905550600360008273ffffffffffffffffffffffffffffffffffffffff1673ffffffffffffffffffffffffffffffffffffffff1681526020019081526020016000206004018390806001815401808255809150509060018203906000526020600020016000909192909190915055506001915050610b9a565b60009150505b92915050565b60606000600160008481526020019081526020016000206000016001600085815260200190815260200160002060010154818054600181600116156101000203166002900480601f016020809104026020016040519081016040528092919081815260200182805460018160011615610100020316600290048015610c665780601f10610c3b57610100808354040283529160200191610c66565b820191906000526020600020905b815481529060010190602001808311610c4957829003601f168201915b5050505050915091509150915091565b6060806060806060600360008773ffffffffffffffffffffffffffffffffffffffff1673ffffffffffffffffffffffffffffffffffffffff168152602001908152602001600020600001600360008873ffffffffffffffffffffffffffffffffffffffff1673ffffffffffffffffffffffffffffffffffffffff168152602001908152602001600020600101600360008973ffffffffffffffffffffffffffffffffffffffff1673ffffffffffffffffffffffffffffffffffffffff168152602001908152602001600020600201600360008a73ffffffffffffffffffffffffffffffffffffffff1673ffffffffffffffffffffffffffffffffffffffff168152602001908152602001600020600301600360008b73ffffffffffffffffffffffffffffffffffffffff1673ffffffffffffffffffffffffffffffffffffffff168152602001908152602001600020600401848054600181600116156101000203166002900480601f016020809104026020016040519081016040528092919081815260200182805460018160011615610100020316600290048015610e5d5780601f10610e3257610100808354040283529160200191610e5d565b820191906000526020600020905b815481529060010190602001808311610e4057829003601f168201915b50505050509450838054600181600116156101000203166002900480601f016020809104026020016040519081016040528092919081815260200182805460018160011615610100020316600290048015610ef95780601f10610ece57610100808354040283529160200191610ef9565b820191906000526020600020905b815481529060010190602001808311610edc57829003601f168201915b50505050509350828054600181600116156101000203166002900480601f016020809104026020016040519081016040528092919081815260200182805460018160011615610100020316600290048015610f955780601f10610f6a57610100808354040283529160200191610f95565b820191906000526020600020905b815481529060010190602001808311610f7857829003601f168201915b50505050509250818054600181600116156101000203166002900480601f0160208091040260200160405190810160405280929190818152602001828054600181600116156101000203166002900480156110315780601f1061100657610100808354040283529160200191611031565b820191906000526020600020905b81548152906001019060200180831161101457829003601f168201915b505050505091508080548060200260200160405190810160405280929190818152602001828054801561108357602002820191906000526020600020905b81548152602001906001019080831161106f575b505050505090509450945094509450945091939590929450565b606060028054806020026020016040519081016040528092919081815260200182805480156110eb57602002820191906000526020600020905b8154815260200190600101908083116110d7575b5050505050905090565b60008060009054906101000a900473ffffffffffffffffffffffffffffffffffffffff1673ffffffffffffffffffffffffffffffffffffffff163373ffffffffffffffffffffffffffffffffffffffff1614151561114f57fe5b600360008373ffffffffffffffffffffffffffffffffffffffff1673ffffffffffffffffffffffffffffffffffffffff1681526020019081526020016000206000808201600061119f91906115e2565b6001820160006111af91906115e2565b6002820160006111bf91906115e2565b6003820160006111cf91906115e2565b6004820160006111df919061162a565b505060019050919050565b60008060009054906101000a900473ffffffffffffffffffffffffffffffffffffffff1673ffffffffffffffffffffffffffffffffffffffff163373ffffffffffffffffffffffffffffffffffffffff1614151561124457fe5b600160008381526020019081526020016000206000808201600061126891906115e2565b6001820160009055505060019050919050565b6000803390506000600360003373ffffffffffffffffffffffffffffffffffffffff1673ffffffffffffffffffffffffffffffffffffffff1681526020019081526020016000206000018054600181600116156101000203166002900490501480156112e957506000865114155b156114ba5785600360008373ffffffffffffffffffffffffffffffffffffffff1673ffffffffffffffffffffffffffffffffffffffff1681526020019081526020016000206000019080519060200190611344929190611562565b5084600360008373ffffffffffffffffffffffffffffffffffffffff1673ffffffffffffffffffffffffffffffffffffffff168152602001908152602001600020600101908051906020019061139b929190611562565b5083600360008373ffffffffffffffffffffffffffffffffffffffff1673ffffffffffffffffffffffffffffffffffffffff16815260200190815260200160002060020190805190602001906113f2929190611562565b5082600360008373ffffffffffffffffffffffffffffffffffffffff1673ffffffffffffffffffffffffffffffffffffffff1681526020019081526020016000206003019080519060200190611449929190611562565b5060048190806001815401808255809150509060018203906000526020600020016000909192909190916101000a81548173ffffffffffffffffffffffffffffffffffffffff021916908373ffffffffffffffffffffffffffffffffffffffff1602179055505060019150506114c0565b60009150505b949350505050565b6060600360008373ffffffffffffffffffffffffffffffffffffffff1673ffffffffffffffffffffffffffffffffffffffff16815260200190815260200160002060040180548060200260200160405190810160405280929190818152602001828054801561155657602002820191906000526020600020905b815481526020019060010190808311611542575b50505050509050919050565b828054600181600116156101000203166002900490600052602060002090601f016020900481019282601f106115a357805160ff19168380011785556115d1565b828001600101855582156115d1579182015b828111156115d05782518255916020019190600101906115b5565b5b5090506115de919061164b565b5090565b50805460018160011615610100020316600290046000825580601f106116085750611627565b601f016020900490600052602060002090810190611626919061164b565b5b50565b50805460008255906000526020600020908101906116489190611670565b50565b61166d91905b80821115611669576000816000905550600101611651565b5090565b90565b61169291905b8082111561168e576000816000905550600101611676565b5090565b9056fea165627a7a723058201bbd0b9e92d07eba6cb0a9668e77f11089d7a95d46fd3473c3a74f9aaedfc3040029",
  "source": "pragma solidity >=0.4.0 <0.6.0;\n\ncontract TestContract {\n\taddress Admin;\n\n\tmapping (bytes32 => notarizedImage) notarizedImages;\n\tbytes32[] imagesByNotaryHash;\n\n\tmapping (address => User) Users;\n\taddress[] usersByAddress;\n\n\tstruct notarizedImage {\n\t\tstring imageURL;\n\t\tuint timeStamp;\n\t}\n\n\tstruct User {\n\t\tstring handle;\n\t\tstring city;\n\t\tstring state;\n\t\tstring country;\n\t\tbytes32[] myImages;\n\t}\n\n\tconstructor() public payable {\n\t\tAdmin = msg.sender;\n\t}\n\n\tmodifier onlyAdmin() {\n\t\tassert(msg.sender == Admin); _;\n\t}\n\n\tfunction removeUser(address badUser) public onlyAdmin returns (bool success) {\n\t\tdelete Users[badUser];\n\t\treturn true;\n\t}\n\n\tfunction removeImage(bytes32 badImage) public onlyAdmin returns (bool success) {\n\t\tdelete notarizedImages[badImage];\n\t\treturn true;\n\t}\n\n\tfunction registerNewUser(string memory handle, string memory city, string memory state, string memory country) public returns (bool success) {\n\t\taddress thisNewAddress = msg.sender;\n\t\tif (bytes(Users[msg.sender].handle).length == 0 && bytes(handle).length != 0) {\n\t\t\tUsers[thisNewAddress].handle = handle;\n\t\t\tUsers[thisNewAddress].city = city;\n\t\t\tUsers[thisNewAddress].state = state;\n\t\t\tUsers[thisNewAddress].country = country;\n\t\t\tusersByAddress.push(thisNewAddress);\n\t\t\treturn true;\n\t\t} else {\n\t\t\treturn false;\n\t\t}\n\t}\n\n\tfunction addImagetoUser(string memory imageURL, bytes32 SHA256notaryHash) public returns (bool success) {\n\t\taddress thisNewAddress = msg.sender;\n\t\tif (bytes(Users[msg.sender].handle).length == 0 && bytes(imageURL).length != 0) {\n\t\t\tif (bytes(notarizedImages[SHA256notaryHash].imageURL).length == 0) {\n\t\t\t\timagesByNotaryHash.push(SHA256notaryHash);\n\t\t\t}\n\t\t\tnotarizedImages[SHA256notaryHash].imageURL = imageURL;\n\t\t\tnotarizedImages[SHA256notaryHash].timeStamp = block.timestamp;\n\t\t\tUsers[thisNewAddress].myImages.push(SHA256notaryHash);\n\t\t\treturn true;\n\t\t} else {\n\t\t\treturn false;\n\t\t}\n\t}\n\n\tfunction getUsers() public view returns (address[] memory) {\n\t\treturn usersByAddress;\n\t}\n\n\tfunction getUser(address userAddress) public view returns (string memory, string memory, string memory, string memory, bytes32[] memory) {\n\t\treturn (Users[userAddress].handle, Users[userAddress].city, Users[userAddress].state, Users[userAddress].country, Users[userAddress].myImages);\n\t}\n\n\tfunction getAllImages() public view returns (bytes32[] memory) {\n\t\treturn imagesByNotaryHash;\n\t}\n\n\tfunction getUserImages(address userAddress) public view returns (bytes32[] memory) {\n\t\treturn Users[userAddress].myImages;\n\t}\n\n\tfunction getImage(bytes32 SHA256notaryHash) public view returns (string memory, uint) {\n\t\treturn (notarizedImages[SHA256notaryHash].imageURL, notarizedImages[SHA256notaryHash].timeStamp);\n\t}\n\n}\n",
  "sourcePath": "/home/gadsater/code/land_registry/contracts/TestContract.sol",
  "compiler": {
    "name": "solc",
    "version": "0.5.0+commit.1d4f565a.Emscripten.clang"
  },
  "schemaVersion": "3.0.1",
  "updatedAt": "2019-01-29T18:16:14.075Z",
  "devdoc": {
    "methods": {}
  },
  "userdoc": {
    "methods": {}
  }
}